{
  "_format": "hh-sol-artifact-1",
  "contractName": "MyEpicGame",
  "sourceName": "contracts/MyEpicGame.sol",
  "abi": [
    {
      "inputs": [
        {
          "internalType": "string[]",
          "name": "characterNames",
          "type": "string[]"
        },
        {
          "internalType": "string[]",
          "name": "characterImageURIs",
          "type": "string[]"
        },
        {
          "internalType": "uint256[]",
          "name": "characterMaxHp",
          "type": "uint256[]"
        },
        {
          "internalType": "uint256[]",
          "name": "characterAttackDamage",
          "type": "uint256[]"
        }
      ],
      "stateMutability": "nonpayable",
      "type": "constructor"
    },
    {
      "anonymous": false,
      "inputs": [
        {
          "indexed": true,
          "internalType": "address",
          "name": "owner",
          "type": "address"
        },
        {
          "indexed": true,
          "internalType": "address",
          "name": "approved",
          "type": "address"
        },
        {
          "indexed": true,
          "internalType": "uint256",
          "name": "tokenId",
          "type": "uint256"
        }
      ],
      "name": "Approval",
      "type": "event"
    },
    {
      "anonymous": false,
      "inputs": [
        {
          "indexed": true,
          "internalType": "address",
          "name": "owner",
          "type": "address"
        },
        {
          "indexed": true,
          "internalType": "address",
          "name": "operator",
          "type": "address"
        },
        {
          "indexed": false,
          "internalType": "bool",
          "name": "approved",
          "type": "bool"
        }
      ],
      "name": "ApprovalForAll",
      "type": "event"
    },
    {
      "anonymous": false,
      "inputs": [
        {
          "indexed": true,
          "internalType": "address",
          "name": "from",
          "type": "address"
        },
        {
          "indexed": true,
          "internalType": "address",
          "name": "to",
          "type": "address"
        },
        {
          "indexed": true,
          "internalType": "uint256",
          "name": "tokenId",
          "type": "uint256"
        }
      ],
      "name": "Transfer",
      "type": "event"
    },
    {
      "inputs": [
        {
          "internalType": "address",
          "name": "to",
          "type": "address"
        },
        {
          "internalType": "uint256",
          "name": "tokenId",
          "type": "uint256"
        }
      ],
      "name": "approve",
      "outputs": [],
      "stateMutability": "nonpayable",
      "type": "function"
    },
    {
      "inputs": [
        {
          "internalType": "address",
          "name": "owner",
          "type": "address"
        }
      ],
      "name": "balanceOf",
      "outputs": [
        {
          "internalType": "uint256",
          "name": "",
          "type": "uint256"
        }
      ],
      "stateMutability": "view",
      "type": "function"
    },
    {
      "inputs": [
        {
          "internalType": "uint256",
          "name": "tokenId",
          "type": "uint256"
        }
      ],
      "name": "getApproved",
      "outputs": [
        {
          "internalType": "address",
          "name": "",
          "type": "address"
        }
      ],
      "stateMutability": "view",
      "type": "function"
    },
    {
      "inputs": [
        {
          "internalType": "address",
          "name": "owner",
          "type": "address"
        },
        {
          "internalType": "address",
          "name": "operator",
          "type": "address"
        }
      ],
      "name": "isApprovedForAll",
      "outputs": [
        {
          "internalType": "bool",
          "name": "",
          "type": "bool"
        }
      ],
      "stateMutability": "view",
      "type": "function"
    },
    {
      "inputs": [
        {
          "internalType": "uint256",
          "name": "_characterIndex",
          "type": "uint256"
        }
      ],
      "name": "mintCharacterNFT",
      "outputs": [],
      "stateMutability": "nonpayable",
      "type": "function"
    },
    {
      "inputs": [],
      "name": "name",
      "outputs": [
        {
          "internalType": "string",
          "name": "",
          "type": "string"
        }
      ],
      "stateMutability": "view",
      "type": "function"
    },
    {
      "inputs": [
        {
          "internalType": "uint256",
          "name": "",
          "type": "uint256"
        }
      ],
      "name": "nftHolderAttributes",
      "outputs": [
        {
          "internalType": "uint256",
          "name": "characterIndex",
          "type": "uint256"
        },
        {
          "internalType": "string",
          "name": "name",
          "type": "string"
        },
        {
          "internalType": "string",
          "name": "imageURI",
          "type": "string"
        },
        {
          "internalType": "uint256",
          "name": "maxHp",
          "type": "uint256"
        },
        {
          "internalType": "uint256",
          "name": "hp",
          "type": "uint256"
        },
        {
          "internalType": "uint256",
          "name": "attackDamage",
          "type": "uint256"
        }
      ],
      "stateMutability": "view",
      "type": "function"
    },
    {
      "inputs": [
        {
          "internalType": "address",
          "name": "",
          "type": "address"
        }
      ],
      "name": "nftHolders",
      "outputs": [
        {
          "internalType": "uint256",
          "name": "",
          "type": "uint256"
        }
      ],
      "stateMutability": "view",
      "type": "function"
    },
    {
      "inputs": [
        {
          "internalType": "uint256",
          "name": "tokenId",
          "type": "uint256"
        }
      ],
      "name": "ownerOf",
      "outputs": [
        {
          "internalType": "address",
          "name": "",
          "type": "address"
        }
      ],
      "stateMutability": "view",
      "type": "function"
    },
    {
      "inputs": [
        {
          "internalType": "address",
          "name": "from",
          "type": "address"
        },
        {
          "internalType": "address",
          "name": "to",
          "type": "address"
        },
        {
          "internalType": "uint256",
          "name": "tokenId",
          "type": "uint256"
        }
      ],
      "name": "safeTransferFrom",
      "outputs": [],
      "stateMutability": "nonpayable",
      "type": "function"
    },
    {
      "inputs": [
        {
          "internalType": "address",
          "name": "from",
          "type": "address"
        },
        {
          "internalType": "address",
          "name": "to",
          "type": "address"
        },
        {
          "internalType": "uint256",
          "name": "tokenId",
          "type": "uint256"
        },
        {
          "internalType": "bytes",
          "name": "data",
          "type": "bytes"
        }
      ],
      "name": "safeTransferFrom",
      "outputs": [],
      "stateMutability": "nonpayable",
      "type": "function"
    },
    {
      "inputs": [
        {
          "internalType": "address",
          "name": "operator",
          "type": "address"
        },
        {
          "internalType": "bool",
          "name": "approved",
          "type": "bool"
        }
      ],
      "name": "setApprovalForAll",
      "outputs": [],
      "stateMutability": "nonpayable",
      "type": "function"
    },
    {
      "inputs": [
        {
          "internalType": "bytes4",
          "name": "interfaceId",
          "type": "bytes4"
        }
      ],
      "name": "supportsInterface",
      "outputs": [
        {
          "internalType": "bool",
          "name": "",
          "type": "bool"
        }
      ],
      "stateMutability": "view",
      "type": "function"
    },
    {
      "inputs": [],
      "name": "symbol",
      "outputs": [
        {
          "internalType": "string",
          "name": "",
          "type": "string"
        }
      ],
      "stateMutability": "view",
      "type": "function"
    },
    {
      "inputs": [
        {
          "internalType": "uint256",
          "name": "_tokenID",
          "type": "uint256"
        }
      ],
      "name": "tokenURI",
      "outputs": [
        {
          "internalType": "string",
          "name": "",
          "type": "string"
        }
      ],
      "stateMutability": "view",
      "type": "function"
    },
    {
      "inputs": [
        {
          "internalType": "address",
          "name": "from",
          "type": "address"
        },
        {
          "internalType": "address",
          "name": "to",
          "type": "address"
        },
        {
          "internalType": "uint256",
          "name": "tokenId",
          "type": "uint256"
        }
      ],
      "name": "transferFrom",
      "outputs": [],
      "stateMutability": "nonpayable",
      "type": "function"
    }
  ],
  "bytecode": "0x60806040523480156200001157600080fd5b5060405162004565380380620045658339818101604052810190620000379190620008ac565b6040518060400160405280600881526020017f4f6e6550696563650000000000000000000000000000000000000000000000008152506040518060400160405280600881526020017f4f4e4550494553450000000000000000000000000000000000000000000000008152508160009081620000b4919062000bdb565b508060019081620000c6919062000bdb565b50505060005b8451811015620003ff5760076040518060c00160405280838152602001878481518110620000ff57620000fe62000cc2565b5b6020026020010151815260200186848151811062000122576200012162000cc2565b5b6020026020010151815260200185848151811062000145576200014462000cc2565b5b6020026020010151815260200185848151811062000168576200016762000cc2565b5b602002602001015181526020018484815181106200018b576200018a62000cc2565b5b60200260200101518152509080600181540180825580915050600190039060005260206000209060060201600090919091909150600082015181600001556020820151816001019081620001e0919062000bdb565b506040820151816002019081620001f8919062000bdb565b50606082015181600301556080820151816004015560a08201518160050155505060006007828154811062000232576200023162000cc2565b5b90600052602060002090600602016040518060c0016040529081600082015481526020016001820180546200026790620009d4565b80601f01602080910402602001604051908101604052809291908181526020018280546200029590620009d4565b8015620002e65780601f10620002ba57610100808354040283529160200191620002e6565b820191906000526020600020905b815481529060010190602001808311620002c857829003601f168201915b505050505081526020016002820180546200030190620009d4565b80601f01602080910402602001604051908101604052809291908181526020018280546200032f90620009d4565b8015620003805780601f10620003545761010080835404028352916020019162000380565b820191906000526020600020905b8154815290600101906020018083116200036257829003601f168201915b5050505050815260200160038201548152602001600482015481526020016005820154815250509050620003e76040518060600160405280603881526020016200452d60389139826020015183608001518460a001516200042160201b620010061760201c565b50600181620003f7919062000d20565b9050620000cc565b50620004176006620004cd60201b620010a81760201c565b5050505062000e19565b620004c7848484846040516024016200043e949392919062000dbe565b6040516020818303038152906040527ff45d7d2c000000000000000000000000000000000000000000000000000000007bffffffffffffffffffffffffffffffffffffffffffffffffffffffff19166020820180517bffffffffffffffffffffffffffffffffffffffffffffffffffffffff8381831617835250505050620004e360201b60201c565b50505050565b6001816000016000828254019250508190555050565b60008151905060006a636f6e736f6c652e6c6f679050602083016000808483855afa5050505050565b6000604051905090565b600080fd5b600080fd5b600080fd5b6000601f19601f8301169050919050565b7f4e487b7100000000000000000000000000000000000000000000000000000000600052604160045260246000fd5b620005708262000525565b810181811067ffffffffffffffff8211171562000592576200059162000536565b5b80604052505050565b6000620005a76200050c565b9050620005b5828262000565565b919050565b600067ffffffffffffffff821115620005d857620005d762000536565b5b602082029050602081019050919050565b600080fd5b600080fd5b600067ffffffffffffffff82111562000611576200061062000536565b5b6200061c8262000525565b9050602081019050919050565b60005b83811015620006495780820151818401526020810190506200062c565b60008484015250505050565b60006200066c6200066684620005f3565b6200059b565b9050828152602081018484840111156200068b576200068a620005ee565b5b6200069884828562000629565b509392505050565b600082601f830112620006b857620006b762000520565b5b8151620006ca84826020860162000655565b91505092915050565b6000620006ea620006e484620005ba565b6200059b565b9050808382526020820190506020840283018581111562000710576200070f620005e9565b5b835b818110156200075e57805167ffffffffffffffff81111562000739576200073862000520565b5b808601620007488982620006a0565b8552602085019450505060208101905062000712565b5050509392505050565b600082601f83011262000780576200077f62000520565b5b815162000792848260208601620006d3565b91505092915050565b600067ffffffffffffffff821115620007b957620007b862000536565b5b602082029050602081019050919050565b6000819050919050565b620007df81620007ca565b8114620007eb57600080fd5b50565b600081519050620007ff81620007d4565b92915050565b60006200081c62000816846200079b565b6200059b565b90508083825260208201905060208402830185811115620008425762000841620005e9565b5b835b818110156200086f57806200085a8882620007ee565b84526020840193505060208101905062000844565b5050509392505050565b600082601f83011262000891576200089062000520565b5b8151620008a384826020860162000805565b91505092915050565b60008060008060808587031215620008c957620008c862000516565b5b600085015167ffffffffffffffff811115620008ea57620008e96200051b565b5b620008f88782880162000768565b945050602085015167ffffffffffffffff8111156200091c576200091b6200051b565b5b6200092a8782880162000768565b935050604085015167ffffffffffffffff8111156200094e576200094d6200051b565b5b6200095c8782880162000879565b925050606085015167ffffffffffffffff81111562000980576200097f6200051b565b5b6200098e8782880162000879565b91505092959194509250565b600081519050919050565b7f4e487b7100000000000000000000000000000000000000000000000000000000600052602260045260246000fd5b60006002820490506001821680620009ed57607f821691505b60208210810362000a035762000a02620009a5565b5b50919050565b60008190508160005260206000209050919050565b60006020601f8301049050919050565b600082821b905092915050565b60006008830262000a6d7fffffffffffffffffffffffffffffffffffffffffffffffffffffffffffffffff8262000a2e565b62000a79868362000a2e565b95508019841693508086168417925050509392505050565b6000819050919050565b600062000abc62000ab662000ab084620007ca565b62000a91565b620007ca565b9050919050565b6000819050919050565b62000ad88362000a9b565b62000af062000ae78262000ac3565b84845462000a3b565b825550505050565b600090565b62000b0762000af8565b62000b1481848462000acd565b505050565b5b8181101562000b3c5762000b3060008262000afd565b60018101905062000b1a565b5050565b601f82111562000b8b5762000b558162000a09565b62000b608462000a1e565b8101602085101562000b70578190505b62000b8862000b7f8562000a1e565b83018262000b19565b50505b505050565b600082821c905092915050565b600062000bb06000198460080262000b90565b1980831691505092915050565b600062000bcb838362000b9d565b9150826002028217905092915050565b62000be6826200099a565b67ffffffffffffffff81111562000c025762000c0162000536565b5b62000c0e8254620009d4565b62000c1b82828562000b40565b600060209050601f83116001811462000c53576000841562000c3e578287015190505b62000c4a858262000bbd565b86555062000cba565b601f19841662000c638662000a09565b60005b8281101562000c8d5784890151825560018201915060208501945060208101905062000c66565b8683101562000cad578489015162000ca9601f89168262000b9d565b8355505b6001600288020188555050505b505050505050565b7f4e487b7100000000000000000000000000000000000000000000000000000000600052603260045260246000fd5b7f4e487b7100000000000000000000000000000000000000000000000000000000600052601160045260246000fd5b600062000d2d82620007ca565b915062000d3a83620007ca565b925082820190508082111562000d555762000d5462000cf1565b5b92915050565b600082825260208201905092915050565b600062000d79826200099a565b62000d85818562000d5b565b935062000d9781856020860162000629565b62000da28162000525565b840191505092915050565b62000db881620007ca565b82525050565b6000608082019050818103600083015262000dda818762000d6c565b9050818103602083015262000df0818662000d6c565b905062000e01604083018562000dad565b62000e10606083018462000dad565b95945050505050565b6137048062000e296000396000f3fe608060405234801561001057600080fd5b50600436106101005760003560e01c80637df124a111610097578063b88d4fde11610066578063b88d4fde146102d6578063c87b56dd146102f2578063e985e9c514610322578063f8b81ef71461035257610100565b80637df124a11461023757806395d89b411461026757806398da4c9514610285578063a22cb465146102ba57610100565b806323b872dd116100d357806323b872dd1461019f57806342842e0e146101bb5780636352211e146101d757806370a082311461020757610100565b806301ffc9a71461010557806306fdde0314610135578063081812fc14610153578063095ea7b314610183575b600080fd5b61011f600480360381019061011a919061214e565b61036e565b60405161012c9190612196565b60405180910390f35b61013d610450565b60405161014a9190612241565b60405180910390f35b61016d60048036038101906101689190612299565b6104e2565b60405161017a9190612307565b60405180910390f35b61019d6004803603810190610198919061234e565b610528565b005b6101b960048036038101906101b4919061238e565b61063f565b005b6101d560048036038101906101d0919061238e565b61069f565b005b6101f160048036038101906101ec9190612299565b6106bf565b6040516101fe9190612307565b60405180910390f35b610221600480360381019061021c91906123e1565b610745565b60405161022e919061241d565b60405180910390f35b610251600480360381019061024c91906123e1565b6107fc565b60405161025e919061241d565b60405180910390f35b61026f610814565b60405161027c9190612241565b60405180910390f35b61029f600480360381019061029a9190612299565b6108a6565b6040516102b196959493929190612438565b60405180910390f35b6102d460048036038101906102cf91906124d3565b6109f2565b005b6102f060048036038101906102eb9190612648565b610a08565b005b61030c60048036038101906103079190612299565b610a6a565b6040516103199190612241565b60405180910390f35b61033c600480360381019061033791906126cb565b610c85565b6040516103499190612196565b60405180910390f35b61036c60048036038101906103679190612299565b610d19565b005b60007f80ac58cd000000000000000000000000000000000000000000000000000000007bffffffffffffffffffffffffffffffffffffffffffffffffffffffff1916827bffffffffffffffffffffffffffffffffffffffffffffffffffffffff1916148061043957507f5b5e139f000000000000000000000000000000000000000000000000000000007bffffffffffffffffffffffffffffffffffffffffffffffffffffffff1916827bffffffffffffffffffffffffffffffffffffffffffffffffffffffff1916145b806104495750610448826110be565b5b9050919050565b60606000805461045f9061273a565b80601f016020809104026020016040519081016040528092919081815260200182805461048b9061273a565b80156104d85780601f106104ad576101008083540402835291602001916104d8565b820191906000526020600020905b8154815290600101906020018083116104bb57829003601f168201915b5050505050905090565b60006104ed82611128565b6004600083815260200190815260200160002060009054906101000a900473ffffffffffffffffffffffffffffffffffffffff169050919050565b6000610533826106bf565b90508073ffffffffffffffffffffffffffffffffffffffff168373ffffffffffffffffffffffffffffffffffffffff16036105a3576040517f08c379a000000000000000000000000000000000000000000000000000000000815260040161059a906127dd565b60405180910390fd5b8073ffffffffffffffffffffffffffffffffffffffff166105c2611173565b73ffffffffffffffffffffffffffffffffffffffff1614806105f157506105f0816105eb611173565b610c85565b5b610630576040517f08c379a00000000000000000000000000000000000000000000000000000000081526004016106279061286f565b60405180910390fd5b61063a838361117b565b505050565b61065061064a611173565b82611234565b61068f576040517f08c379a000000000000000000000000000000000000000000000000000000000815260040161068690612901565b60405180910390fd5b61069a8383836112c9565b505050565b6106ba83838360405180602001604052806000815250610a08565b505050565b6000806106cb836115c2565b9050600073ffffffffffffffffffffffffffffffffffffffff168173ffffffffffffffffffffffffffffffffffffffff160361073c576040517f08c379a00000000000000000000000000000000000000000000000000000000081526004016107339061296d565b60405180910390fd5b80915050919050565b60008073ffffffffffffffffffffffffffffffffffffffff168273ffffffffffffffffffffffffffffffffffffffff16036107b5576040517f08c379a00000000000000000000000000000000000000000000000000000000081526004016107ac906129ff565b60405180910390fd5b600360008373ffffffffffffffffffffffffffffffffffffffff1673ffffffffffffffffffffffffffffffffffffffff168152602001908152602001600020549050919050565b60096020528060005260406000206000915090505481565b6060600180546108239061273a565b80601f016020809104026020016040519081016040528092919081815260200182805461084f9061273a565b801561089c5780601f106108715761010080835404028352916020019161089c565b820191906000526020600020905b81548152906001019060200180831161087f57829003601f168201915b5050505050905090565b60086020528060005260406000206000915090508060000154908060010180546108cf9061273a565b80601f01602080910402602001604051908101604052809291908181526020018280546108fb9061273a565b80156109485780601f1061091d57610100808354040283529160200191610948565b820191906000526020600020905b81548152906001019060200180831161092b57829003601f168201915b50505050509080600201805461095d9061273a565b80601f01602080910402602001604051908101604052809291908181526020018280546109899061273a565b80156109d65780601f106109ab576101008083540402835291602001916109d6565b820191906000526020600020905b8154815290600101906020018083116109b957829003601f168201915b5050505050908060030154908060040154908060050154905086565b610a046109fd611173565b83836115ff565b5050565b610a19610a13611173565b83611234565b610a58576040517f08c379a0000000000000000000000000000000000000000000000000000000008152600401610a4f90612901565b60405180910390fd5b610a648484848461176b565b50505050565b60606000600860008481526020019081526020016000206040518060c001604052908160008201548152602001600182018054610aa69061273a565b80601f0160208091040260200160405190810160405280929190818152602001828054610ad29061273a565b8015610b1f5780601f10610af457610100808354040283529160200191610b1f565b820191906000526020600020905b815481529060010190602001808311610b0257829003601f168201915b50505050508152602001600282018054610b389061273a565b80601f0160208091040260200160405190810160405280929190818152602001828054610b649061273a565b8015610bb15780601f10610b8657610100808354040283529160200191610bb1565b820191906000526020600020905b815481529060010190602001808311610b9457829003601f168201915b50505050508152602001600382015481526020016004820154815260200160058201548152505090506000610be982608001516117c7565b90506000610bfa83606001516117c7565b90506000610c0b8460a001516117c7565b90506000610c518560200151610c20896117c7565b8760400151878787604051602001610c3d96959493929190612d2d565b604051602081830303815290604052611895565b9050600081604051602001610c669190612e1e565b6040516020818303038152906040529050809650505050505050919050565b6000600560008473ffffffffffffffffffffffffffffffffffffffff1673ffffffffffffffffffffffffffffffffffffffff16815260200190815260200160002060008373ffffffffffffffffffffffffffffffffffffffff1673ffffffffffffffffffffffffffffffffffffffff16815260200190815260200160002060009054906101000a900460ff16905092915050565b6000610d256006611a2c565b9050610d313382611a3a565b6040518060c0016040528083815260200160078481548110610d5657610d55612e40565b5b90600052602060002090600602016001018054610d729061273a565b80601f0160208091040260200160405190810160405280929190818152602001828054610d9e9061273a565b8015610deb5780601f10610dc057610100808354040283529160200191610deb565b820191906000526020600020905b815481529060010190602001808311610dce57829003601f168201915b5050505050815260200160078481548110610e0957610e08612e40565b5b90600052602060002090600602016002018054610e259061273a565b80601f0160208091040260200160405190810160405280929190818152602001828054610e519061273a565b8015610e9e5780601f10610e7357610100808354040283529160200191610e9e565b820191906000526020600020905b815481529060010190602001808311610e8157829003601f168201915b5050505050815260200160078481548110610ebc57610ebb612e40565b5b906000526020600020906006020160030154815260200160078481548110610ee757610ee6612e40565b5b906000526020600020906006020160040154815260200160078481548110610f1257610f11612e40565b5b90600052602060002090600602016005015481525060086000838152602001908152602001600020600082015181600001556020820151816001019081610f59919061301b565b506040820151816002019081610f6f919061301b565b50606082015181600301556080820151816004015560a08201518160050155905050610fb46040518060600160405280602e81526020016136a1602e91398284611a58565b80600960003373ffffffffffffffffffffffffffffffffffffffff1673ffffffffffffffffffffffffffffffffffffffff1681526020019081526020016000208190555061100260066110a8565b5050565b6110a28484848460405160240161102094939291906130ed565b6040516020818303038152906040527ff45d7d2c000000000000000000000000000000000000000000000000000000007bffffffffffffffffffffffffffffffffffffffffffffffffffffffff19166020820180517bffffffffffffffffffffffffffffffffffffffffffffffffffffffff8381831617835250505050611af7565b50505050565b6001816000016000828254019250508190555050565b60007f01ffc9a7000000000000000000000000000000000000000000000000000000007bffffffffffffffffffffffffffffffffffffffffffffffffffffffff1916827bffffffffffffffffffffffffffffffffffffffffffffffffffffffff1916149050919050565b61113181611b20565b611170576040517f08c379a00000000000000000000000000000000000000000000000000000000081526004016111679061296d565b60405180910390fd5b50565b600033905090565b816004600083815260200190815260200160002060006101000a81548173ffffffffffffffffffffffffffffffffffffffff021916908373ffffffffffffffffffffffffffffffffffffffff160217905550808273ffffffffffffffffffffffffffffffffffffffff166111ee836106bf565b73ffffffffffffffffffffffffffffffffffffffff167f8c5be1e5ebec7d5bd14f71427d1e84f3dd0314c0f7b2291e5b200ac8c7c3b92560405160405180910390a45050565b600080611240836106bf565b90508073ffffffffffffffffffffffffffffffffffffffff168473ffffffffffffffffffffffffffffffffffffffff16148061128257506112818185610c85565b5b806112c057508373ffffffffffffffffffffffffffffffffffffffff166112a8846104e2565b73ffffffffffffffffffffffffffffffffffffffff16145b91505092915050565b8273ffffffffffffffffffffffffffffffffffffffff166112e9826106bf565b73ffffffffffffffffffffffffffffffffffffffff161461133f576040517f08c379a0000000000000000000000000000000000000000000000000000000008152600401611336906131b2565b60405180910390fd5b600073ffffffffffffffffffffffffffffffffffffffff168273ffffffffffffffffffffffffffffffffffffffff16036113ae576040517f08c379a00000000000000000000000000000000000000000000000000000000081526004016113a590613244565b60405180910390fd5b6113bb8383836001611b61565b8273ffffffffffffffffffffffffffffffffffffffff166113db826106bf565b73ffffffffffffffffffffffffffffffffffffffff1614611431576040517f08c379a0000000000000000000000000000000000000000000000000000000008152600401611428906131b2565b60405180910390fd5b6004600082815260200190815260200160002060006101000a81549073ffffffffffffffffffffffffffffffffffffffff02191690556001600360008573ffffffffffffffffffffffffffffffffffffffff1673ffffffffffffffffffffffffffffffffffffffff168152602001908152602001600020600082825403925050819055506001600360008473ffffffffffffffffffffffffffffffffffffffff1673ffffffffffffffffffffffffffffffffffffffff16815260200190815260200160002060008282540192505081905550816002600083815260200190815260200160002060006101000a81548173ffffffffffffffffffffffffffffffffffffffff021916908373ffffffffffffffffffffffffffffffffffffffff160217905550808273ffffffffffffffffffffffffffffffffffffffff168473ffffffffffffffffffffffffffffffffffffffff167fddf252ad1be2c89b69c2b068fc378daa952ba7f163c4a11628f55a4df523b3ef60405160405180910390a46115bd8383836001611b67565b505050565b60006002600083815260200190815260200160002060009054906101000a900473ffffffffffffffffffffffffffffffffffffffff169050919050565b8173ffffffffffffffffffffffffffffffffffffffff168373ffffffffffffffffffffffffffffffffffffffff160361166d576040517f08c379a0000000000000000000000000000000000000000000000000000000008152600401611664906132b0565b60405180910390fd5b80600560008573ffffffffffffffffffffffffffffffffffffffff1673ffffffffffffffffffffffffffffffffffffffff16815260200190815260200160002060008473ffffffffffffffffffffffffffffffffffffffff1673ffffffffffffffffffffffffffffffffffffffff16815260200190815260200160002060006101000a81548160ff0219169083151502179055508173ffffffffffffffffffffffffffffffffffffffff168373ffffffffffffffffffffffffffffffffffffffff167f17307eab39ab6107e8899845ad3d59bd9653f200f220920489ca2b5937696c318360405161175e9190612196565b60405180910390a3505050565b6117768484846112c9565b61178284848484611b6d565b6117c1576040517f08c379a00000000000000000000000000000000000000000000000000000000081526004016117b890613342565b60405180910390fd5b50505050565b6060600060016117d684611cf4565b01905060008167ffffffffffffffff8111156117f5576117f461251d565b5b6040519080825280601f01601f1916602001820160405280156118275781602001600182028036833780820191505090505b509050600082602001820190505b60011561188a578080600190039150507f3031323334353637383961626364656600000000000000000000000000000000600a86061a8153600a858161187e5761187d613362565b5b04945060008503611835575b819350505050919050565b6060600082519050600081036118bd5760405180602001604052806000815250915050611a27565b600060036002836118ce91906133c0565b6118d891906133f4565b60046118e49190613425565b905060006020826118f591906133c0565b67ffffffffffffffff81111561190e5761190d61251d565b5b6040519080825280601f01601f1916602001820160405280156119405781602001600182028036833780820191505090505b5090506000604051806060016040528060408152602001613661604091399050600181016020830160005b868110156119e45760038101905062ffffff818a015116603f8160121c168401518060081b905060ff603f83600c1c1686015116810190508060081b905060ff603f8360061c1686015116810190508060081b905060ff603f831686015116810190508060e01b9050808452600484019350505061196b565b5060038606600181146119fe5760028114611a0e57611a19565b613d3d60f01b6002830352611a19565b603d60f81b60018303525b508484525050819450505050505b919050565b600081600001549050919050565b611a54828260405180602001604052806000815250611e47565b5050565b611af2838383604051602401611a7093929190613467565b6040516020818303038152906040527fca47c4eb000000000000000000000000000000000000000000000000000000007bffffffffffffffffffffffffffffffffffffffffffffffffffffffff19166020820180517bffffffffffffffffffffffffffffffffffffffffffffffffffffffff8381831617835250505050611af7565b505050565b60008151905060006a636f6e736f6c652e6c6f679050602083016000808483855afa5050505050565b60008073ffffffffffffffffffffffffffffffffffffffff16611b42836115c2565b73ffffffffffffffffffffffffffffffffffffffff1614159050919050565b50505050565b50505050565b6000611b8e8473ffffffffffffffffffffffffffffffffffffffff16611ea2565b15611ce7578373ffffffffffffffffffffffffffffffffffffffff1663150b7a02611bb7611173565b8786866040518563ffffffff1660e01b8152600401611bd994939291906134fa565b6020604051808303816000875af1925050508015611c1557506040513d601f19601f82011682018060405250810190611c12919061355b565b60015b611c97573d8060008114611c45576040519150601f19603f3d011682016040523d82523d6000602084013e611c4a565b606091505b506000815103611c8f576040517f08c379a0000000000000000000000000000000000000000000000000000000008152600401611c8690613342565b60405180910390fd5b805181602001fd5b63150b7a0260e01b7bffffffffffffffffffffffffffffffffffffffffffffffffffffffff1916817bffffffffffffffffffffffffffffffffffffffffffffffffffffffff191614915050611cec565b600190505b949350505050565b600080600090507a184f03e93ff9f4daa797ed6e38ed64bf6a1f0100000000000000008310611d52577a184f03e93ff9f4daa797ed6e38ed64bf6a1f0100000000000000008381611d4857611d47613362565b5b0492506040810190505b6d04ee2d6d415b85acef81000000008310611d8f576d04ee2d6d415b85acef81000000008381611d8557611d84613362565b5b0492506020810190505b662386f26fc100008310611dbe57662386f26fc100008381611db457611db3613362565b5b0492506010810190505b6305f5e1008310611de7576305f5e1008381611ddd57611ddc613362565b5b0492506008810190505b6127108310611e0c576127108381611e0257611e01613362565b5b0492506004810190505b60648310611e2f5760648381611e2557611e24613362565b5b0492506002810190505b600a8310611e3e576001810190505b80915050919050565b611e518383611ec5565b611e5e6000848484611b6d565b611e9d576040517f08c379a0000000000000000000000000000000000000000000000000000000008152600401611e9490613342565b60405180910390fd5b505050565b6000808273ffffffffffffffffffffffffffffffffffffffff163b119050919050565b600073ffffffffffffffffffffffffffffffffffffffff168273ffffffffffffffffffffffffffffffffffffffff1603611f34576040517f08c379a0000000000000000000000000000000000000000000000000000000008152600401611f2b906135d4565b60405180910390fd5b611f3d81611b20565b15611f7d576040517f08c379a0000000000000000000000000000000000000000000000000000000008152600401611f7490613640565b60405180910390fd5b611f8b600083836001611b61565b611f9481611b20565b15611fd4576040517f08c379a0000000000000000000000000000000000000000000000000000000008152600401611fcb90613640565b60405180910390fd5b6001600360008473ffffffffffffffffffffffffffffffffffffffff1673ffffffffffffffffffffffffffffffffffffffff16815260200190815260200160002060008282540192505081905550816002600083815260200190815260200160002060006101000a81548173ffffffffffffffffffffffffffffffffffffffff021916908373ffffffffffffffffffffffffffffffffffffffff160217905550808273ffffffffffffffffffffffffffffffffffffffff16600073ffffffffffffffffffffffffffffffffffffffff167fddf252ad1be2c89b69c2b068fc378daa952ba7f163c4a11628f55a4df523b3ef60405160405180910390a46120de600083836001611b67565b5050565b6000604051905090565b600080fd5b600080fd5b60007fffffffff0000000000000000000000000000000000000000000000000000000082169050919050565b61212b816120f6565b811461213657600080fd5b50565b60008135905061214881612122565b92915050565b600060208284031215612164576121636120ec565b5b600061217284828501612139565b91505092915050565b60008115159050919050565b6121908161217b565b82525050565b60006020820190506121ab6000830184612187565b92915050565b600081519050919050565b600082825260208201905092915050565b60005b838110156121eb5780820151818401526020810190506121d0565b60008484015250505050565b6000601f19601f8301169050919050565b6000612213826121b1565b61221d81856121bc565b935061222d8185602086016121cd565b612236816121f7565b840191505092915050565b6000602082019050818103600083015261225b8184612208565b905092915050565b6000819050919050565b61227681612263565b811461228157600080fd5b50565b6000813590506122938161226d565b92915050565b6000602082840312156122af576122ae6120ec565b5b60006122bd84828501612284565b91505092915050565b600073ffffffffffffffffffffffffffffffffffffffff82169050919050565b60006122f1826122c6565b9050919050565b612301816122e6565b82525050565b600060208201905061231c60008301846122f8565b92915050565b61232b816122e6565b811461233657600080fd5b50565b60008135905061234881612322565b92915050565b60008060408385031215612365576123646120ec565b5b600061237385828601612339565b925050602061238485828601612284565b9150509250929050565b6000806000606084860312156123a7576123a66120ec565b5b60006123b586828701612339565b93505060206123c686828701612339565b92505060406123d786828701612284565b9150509250925092565b6000602082840312156123f7576123f66120ec565b5b600061240584828501612339565b91505092915050565b61241781612263565b82525050565b6000602082019050612432600083018461240e565b92915050565b600060c08201905061244d600083018961240e565b818103602083015261245f8188612208565b905081810360408301526124738187612208565b9050612482606083018661240e565b61248f608083018561240e565b61249c60a083018461240e565b979650505050505050565b6124b08161217b565b81146124bb57600080fd5b50565b6000813590506124cd816124a7565b92915050565b600080604083850312156124ea576124e96120ec565b5b60006124f885828601612339565b9250506020612509858286016124be565b9150509250929050565b600080fd5b600080fd5b7f4e487b7100000000000000000000000000000000000000000000000000000000600052604160045260246000fd5b612555826121f7565b810181811067ffffffffffffffff821117156125745761257361251d565b5b80604052505050565b60006125876120e2565b9050612593828261254c565b919050565b600067ffffffffffffffff8211156125b3576125b261251d565b5b6125bc826121f7565b9050602081019050919050565b82818337600083830152505050565b60006125eb6125e684612598565b61257d565b90508281526020810184848401111561260757612606612518565b5b6126128482856125c9565b509392505050565b600082601f83011261262f5761262e612513565b5b813561263f8482602086016125d8565b91505092915050565b60008060008060808587031215612662576126616120ec565b5b600061267087828801612339565b945050602061268187828801612339565b935050604061269287828801612284565b925050606085013567ffffffffffffffff8111156126b3576126b26120f1565b5b6126bf8782880161261a565b91505092959194509250565b600080604083850312156126e2576126e16120ec565b5b60006126f085828601612339565b925050602061270185828601612339565b9150509250929050565b7f4e487b7100000000000000000000000000000000000000000000000000000000600052602260045260246000fd5b6000600282049050600182168061275257607f821691505b6020821081036127655761276461270b565b5b50919050565b7f4552433732313a20617070726f76616c20746f2063757272656e74206f776e6560008201527f7200000000000000000000000000000000000000000000000000000000000000602082015250565b60006127c76021836121bc565b91506127d28261276b565b604082019050919050565b600060208201905081810360008301526127f6816127ba565b9050919050565b7f4552433732313a20617070726f76652063616c6c6572206973206e6f7420746f60008201527f6b656e206f776e6572206f7220617070726f76656420666f7220616c6c000000602082015250565b6000612859603d836121bc565b9150612864826127fd565b604082019050919050565b600060208201905081810360008301526128888161284c565b9050919050565b7f4552433732313a2063616c6c6572206973206e6f7420746f6b656e206f776e6560008201527f72206f7220617070726f76656400000000000000000000000000000000000000602082015250565b60006128eb602d836121bc565b91506128f68261288f565b604082019050919050565b6000602082019050818103600083015261291a816128de565b9050919050565b7f4552433732313a20696e76616c696420746f6b656e2049440000000000000000600082015250565b60006129576018836121bc565b915061296282612921565b602082019050919050565b600060208201905081810360008301526129868161294a565b9050919050565b7f4552433732313a2061646472657373207a65726f206973206e6f74206120766160008201527f6c6964206f776e65720000000000000000000000000000000000000000000000602082015250565b60006129e96029836121bc565b91506129f48261298d565b604082019050919050565b60006020820190508181036000830152612a18816129dc565b9050919050565b600081905092915050565b7f7b226e616d65223a202200000000000000000000000000000000000000000000600082015250565b6000612a60600a83612a1f565b9150612a6b82612a2a565b600a82019050919050565b6000612a81826121b1565b612a8b8185612a1f565b9350612a9b8185602086016121cd565b80840191505092915050565b7f202d2d204e465420233a20000000000000000000000000000000000000000000600082015250565b6000612add600b83612a1f565b9150612ae882612aa7565b600b82019050919050565b7f222c20226465736372697074696f6e223a20225468697320697320616e204e4660008201527f542074686174206c6574732070656f706c6520706c617920696e20746865206760208201527f616d65204d657461766572736520536c6179657221222c2022696d616765223a60408201527f2022000000000000000000000000000000000000000000000000000000000000606082015250565b6000612b9b606283612a1f565b9150612ba682612af3565b606282019050919050565b7f222c202261747472696275746573223a205b207b202274726169745f7479706560008201527f223a20224865616c746820506f696e7473222c202276616c7565223a20000000602082015250565b6000612c0d603d83612a1f565b9150612c1882612bb1565b603d82019050919050565b7f2c20226d61785f76616c7565223a200000000000000000000000000000000000600082015250565b6000612c59600f83612a1f565b9150612c6482612c23565b600f82019050919050565b7f207d2c207b202274726169745f74797065223a202241747461636b2044616d6160008201527f6765222c202276616c7565223a20000000000000000000000000000000000000602082015250565b6000612ccb602e83612a1f565b9150612cd682612c6f565b602e82019050919050565b7f207d205d7d000000000000000000000000000000000000000000000000000000600082015250565b6000612d17600583612a1f565b9150612d2282612ce1565b600582019050919050565b6000612d3882612a53565b9150612d448289612a76565b9150612d4f82612ad0565b9150612d5b8288612a76565b9150612d6682612b8e565b9150612d728287612a76565b9150612d7d82612c00565b9150612d898286612a76565b9150612d9482612c4c565b9150612da08285612a76565b9150612dab82612cbe565b9150612db78284612a76565b9150612dc282612d0a565b9150819050979650505050505050565b7f646174613a6170706c69636174696f6e2f6a736f6e3b6261736536342c000000600082015250565b6000612e08601d83612a1f565b9150612e1382612dd2565b601d82019050919050565b6000612e2982612dfb565b9150612e358284612a76565b915081905092915050565b7f4e487b7100000000000000000000000000000000000000000000000000000000600052603260045260246000fd5b60008190508160005260206000209050919050565b60006020601f8301049050919050565b600082821b905092915050565b600060088302612ed17fffffffffffffffffffffffffffffffffffffffffffffffffffffffffffffffff82612e94565b612edb8683612e94565b95508019841693508086168417925050509392505050565b6000819050919050565b6000612f18612f13612f0e84612263565b612ef3565b612263565b9050919050565b6000819050919050565b612f3283612efd565b612f46612f3e82612f1f565b848454612ea1565b825550505050565b600090565b612f5b612f4e565b612f66818484612f29565b505050565b5b81811015612f8a57612f7f600082612f53565b600181019050612f6c565b5050565b601f821115612fcf57612fa081612e6f565b612fa984612e84565b81016020851015612fb8578190505b612fcc612fc485612e84565b830182612f6b565b50505b505050565b600082821c905092915050565b6000612ff260001984600802612fd4565b1980831691505092915050565b600061300b8383612fe1565b9150826002028217905092915050565b613024826121b1565b67ffffffffffffffff81111561303d5761303c61251d565b5b613047825461273a565b613052828285612f8e565b600060209050601f8311600181146130855760008415613073578287015190505b61307d8582612fff565b8655506130e5565b601f19841661309386612e6f565b60005b828110156130bb57848901518255600182019150602085019450602081019050613096565b868310156130d857848901516130d4601f891682612fe1565b8355505b6001600288020188555050505b505050505050565b600060808201905081810360008301526131078187612208565b9050818103602083015261311b8186612208565b905061312a604083018561240e565b613137606083018461240e565b95945050505050565b7f4552433732313a207472616e736665722066726f6d20696e636f72726563742060008201527f6f776e6572000000000000000000000000000000000000000000000000000000602082015250565b600061319c6025836121bc565b91506131a782613140565b604082019050919050565b600060208201905081810360008301526131cb8161318f565b9050919050565b7f4552433732313a207472616e7366657220746f20746865207a65726f2061646460008201527f7265737300000000000000000000000000000000000000000000000000000000602082015250565b600061322e6024836121bc565b9150613239826131d2565b604082019050919050565b6000602082019050818103600083015261325d81613221565b9050919050565b7f4552433732313a20617070726f766520746f2063616c6c657200000000000000600082015250565b600061329a6019836121bc565b91506132a582613264565b602082019050919050565b600060208201905081810360008301526132c98161328d565b9050919050565b7f4552433732313a207472616e7366657220746f206e6f6e20455243373231526560008201527f63656976657220696d706c656d656e7465720000000000000000000000000000602082015250565b600061332c6032836121bc565b9150613337826132d0565b604082019050919050565b6000602082019050818103600083015261335b8161331f565b9050919050565b7f4e487b7100000000000000000000000000000000000000000000000000000000600052601260045260246000fd5b7f4e487b7100000000000000000000000000000000000000000000000000000000600052601160045260246000fd5b60006133cb82612263565b91506133d683612263565b92508282019050808211156133ee576133ed613391565b5b92915050565b60006133ff82612263565b915061340a83612263565b92508261341a57613419613362565b5b828204905092915050565b600061343082612263565b915061343b83612263565b925082820261344981612263565b915082820484148315176134605761345f613391565b5b5092915050565b600060608201905081810360008301526134818186612208565b9050613490602083018561240e565b61349d604083018461240e565b949350505050565b600081519050919050565b600082825260208201905092915050565b60006134cc826134a5565b6134d681856134b0565b93506134e68185602086016121cd565b6134ef816121f7565b840191505092915050565b600060808201905061350f60008301876122f8565b61351c60208301866122f8565b613529604083018561240e565b818103606083015261353b81846134c1565b905095945050505050565b60008151905061355581612122565b92915050565b600060208284031215613571576135706120ec565b5b600061357f84828501613546565b91505092915050565b7f4552433732313a206d696e7420746f20746865207a65726f2061646472657373600082015250565b60006135be6020836121bc565b91506135c982613588565b602082019050919050565b600060208201905081810360008301526135ed816135b1565b9050919050565b7f4552433732313a20746f6b656e20616c7265616479206d696e74656400000000600082015250565b600061362a601c836121bc565b9150613635826135f4565b602082019050919050565b600060208201905081810360008301526136598161361d565b905091905056fe4142434445464748494a4b4c4d4e4f505152535455565758595a6162636465666768696a6b6c6d6e6f707172737475767778797a303132333435363738392b2f4d696e746564204e465420772f20746f6b656e496420257320616e6420636861726163746572496e646578202573a264697066735822122051f9985317f61f788a79e3432b5ddc27e6b57a4d21a2304b2dbc884a1c2778b364736f6c63430008120033446f6e6520696e697469616c697a696e672063686172616374657220257320776974682048502025732c20616e642064616d616765202573",
  "linkReferences": {},
  "deployedLinkReferences": {}
}